{
  "contractName": "FraudDetection",
  "abi": [
    {
      "anonymous": false,
      "inputs": [
        {
          "indexed": true,
          "internalType": "address",
          "name": "triggeredBy",
          "type": "address"
        },
        {
          "indexed": false,
          "internalType": "string",
          "name": "reason",
          "type": "string"
        },
        {
          "indexed": false,
          "internalType": "uint256",
          "name": "timestamp",
          "type": "uint256"
        },
        {
          "indexed": false,
          "internalType": "bytes32",
          "name": "requestId",
          "type": "bytes32"
        }
      ],
      "name": "FraudAlert",
      "type": "event"
    },
    {
      "inputs": [
        {
          "internalType": "string",
          "name": "reason",
          "type": "string"
        },
        {
          "internalType": "bytes32",
          "name": "requestId",
          "type": "bytes32"
        }
      ],
      "name": "triggerAlert",
      "outputs": [],
      "stateMutability": "nonpayable",
      "type": "function"
    }
  ],
  "bytecode": "0x608060405234801561001057600080fd5b506101eb806100206000396000f3fe608060405234801561001057600080fd5b506004361061002b5760003560e01c80637fac729b14610030575b600080fd5b61004361003e3660046100a4565b610045565b005b336001600160a01b03167f08fae95c8ac3e38e05f1199c34a717b00e2efd5f2a23dc42a5e1146e39daad5583428460405161008293929190610159565b60405180910390a25050565b634e487b7160e01b600052604160045260246000fd5b600080604083850312156100b757600080fd5b823567ffffffffffffffff808211156100cf57600080fd5b818501915085601f8301126100e357600080fd5b8135818111156100f5576100f561008e565b604051601f8201601f19908116603f0116810190838211818310171561011d5761011d61008e565b8160405282815288602084870101111561013657600080fd5b826020860160208301376000602093820184015298969091013596505050505050565b606081526000845180606084015260005b81811015610187576020818801810151608086840101520161016a565b506000608082850101526080601f19601f83011684010191505083602083015282604083015294935050505056fea26469706673582212208def0a0d681bf096624ea61887ac5761f7a8df4e0cbf36119d238e5f9787ecea64736f6c63430008140033",
  "immutableReferences": {},
  "source": "// SPDX-License-Identifier: MIT\npragma solidity ^0.8.20;\n\ncontract FraudDetection {\n    event FraudAlert(address indexed triggeredBy, string reason, uint256 timestamp, bytes32 requestId);\n\n    // no storage, no constructor  nothing that can revert\n    function triggerAlert(string memory reason, bytes32 requestId) external {\n        emit FraudAlert(msg.sender, reason, block.timestamp, requestId);\n    }\n}\n",
  "sourcePath": "/home/poh/Documents/Mark - III/Fraud Alert System/contracts/FraudDetection.sol",
  "compiler": {
    "name": "solc",
    "version": "0.8.20+commit.a1b79de6.Emscripten.clang"
  },
  "schemaVersion": "3.4.16",
  "updatedAt": "2025-08-21T11:23:29.990Z",
  "networkType": "ethereum",
  "devdoc": {
    "kind": "dev",
    "methods": {},
    "version": 1
  },
  "userdoc": {
    "kind": "user",
    "methods": {},
    "version": 1
  }
}