{
  "contractName": "Ping",
  "abi": [
    {
      "anonymous": false,
      "inputs": [
        {
          "indexed": true,
          "internalType": "address",
          "name": "who",
          "type": "address"
        },
        {
          "indexed": false,
          "internalType": "uint256",
          "name": "when",
          "type": "uint256"
        }
      ],
      "name": "Pong",
      "type": "event"
    },
    {
      "inputs": [],
      "name": "ping",
      "outputs": [],
      "stateMutability": "nonpayable",
      "type": "function"
    }
  ],
  "bytecode": "0x6080604052348015600f57600080fd5b5060a28061001e6000396000f3fe6080604052348015600f57600080fd5b506004361060285760003560e01c80635c36b18614602d575b600080fd5b60336035565b005b60405142815233907f12327ae0af6b4628917906ebd4caa7fb03809d40f27dbdbd3854df5ed4d504f09060200160405180910390a256fea26469706673582212206aa8e9a81f7045b526d01f2604332f0c057f37d0fd50de5dad0eb9467ce10aa064736f6c63430008140033",
  "immutableReferences": {},
  "source": "// SPDX-License-Identifier: MIT\npragma solidity ^0.8.20;\n\ncontract Ping {\n    event Pong(address indexed who, uint256 when);\n    function ping() external { emit Pong(msg.sender, block.timestamp); }\n}\n\n",
  "sourcePath": "/home/poh/Documents/Mark - III/Fraud Alert System/contracts/Ping.sol",
  "compiler": {
    "name": "solc",
    "version": "0.8.20+commit.a1b79de6.Emscripten.clang"
  },
  "schemaVersion": "3.4.16",
  "updatedAt": "2025-08-21T11:23:30.174Z",
  "networkType": "ethereum",
  "devdoc": {
    "kind": "dev",
    "methods": {},
    "version": 1
  },
  "userdoc": {
    "kind": "user",
    "methods": {},
    "version": 1
  }
}